{
  "_format": "hh3-artifact-1",
  "contractName": "PerpMarket",
  "sourceName": "contracts/PerpMarket.sol",
  "abi": [
    {
      "inputs": [
        {
          "internalType": "address",
          "name": "_vault",
          "type": "address"
        },
        {
          "internalType": "uint256",
          "name": "_initialBaseReserve",
          "type": "uint256"
        },
        {
          "internalType": "uint256",
          "name": "_initialQuoteReserve",
          "type": "uint256"
        }
      ],
      "stateMutability": "nonpayable",
      "type": "constructor"
    },
    {
      "anonymous": false,
      "inputs": [
        {
          "indexed": true,
          "internalType": "address",
          "name": "user",
          "type": "address"
        },
        {
          "indexed": false,
          "internalType": "int256",
          "name": "pnl",
          "type": "int256"
        },
        {
          "indexed": false,
          "internalType": "uint256",
          "name": "payout",
          "type": "uint256"
        }
      ],
      "name": "PositionClosed",
      "type": "event"
    },
    {
      "anonymous": false,
      "inputs": [
        {
          "indexed": true,
          "internalType": "address",
          "name": "user",
          "type": "address"
        },
        {
          "indexed": true,
          "internalType": "address",
          "name": "liquidator",
          "type": "address"
        },
        {
          "indexed": false,
          "internalType": "uint256",
          "name": "reward",
          "type": "uint256"
        }
      ],
      "name": "PositionLiquidated",
      "type": "event"
    },
    {
      "anonymous": false,
      "inputs": [
        {
          "indexed": true,
          "internalType": "address",
          "name": "user",
          "type": "address"
        },
        {
          "indexed": false,
          "internalType": "bool",
          "name": "isLong",
          "type": "bool"
        },
        {
          "indexed": false,
          "internalType": "uint256",
          "name": "margin",
          "type": "uint256"
        },
        {
          "indexed": false,
          "internalType": "uint256",
          "name": "size",
          "type": "uint256"
        },
        {
          "indexed": false,
          "internalType": "uint256",
          "name": "entryPrice",
          "type": "uint256"
        }
      ],
      "name": "PositionOpened",
      "type": "event"
    },
    {
      "inputs": [],
      "name": "LIQUIDATION_REWARD_BPS",
      "outputs": [
        {
          "internalType": "uint256",
          "name": "",
          "type": "uint256"
        }
      ],
      "stateMutability": "view",
      "type": "function"
    },
    {
      "inputs": [],
      "name": "MAINTENANCE_MARGIN_BPS",
      "outputs": [
        {
          "internalType": "uint256",
          "name": "",
          "type": "uint256"
        }
      ],
      "stateMutability": "view",
      "type": "function"
    },
    {
      "inputs": [],
      "name": "closePosition",
      "outputs": [],
      "stateMutability": "nonpayable",
      "type": "function"
    },
    {
      "inputs": [
        {
          "internalType": "address",
          "name": "user",
          "type": "address"
        }
      ],
      "name": "getEquity",
      "outputs": [
        {
          "internalType": "uint256",
          "name": "",
          "type": "uint256"
        }
      ],
      "stateMutability": "view",
      "type": "function"
    },
    {
      "inputs": [
        {
          "internalType": "address",
          "name": "user",
          "type": "address"
        }
      ],
      "name": "getLiquidationPrice",
      "outputs": [
        {
          "internalType": "uint256",
          "name": "",
          "type": "uint256"
        }
      ],
      "stateMutability": "view",
      "type": "function"
    },
    {
      "inputs": [],
      "name": "getMarkPrice",
      "outputs": [
        {
          "internalType": "uint256",
          "name": "",
          "type": "uint256"
        }
      ],
      "stateMutability": "view",
      "type": "function"
    },
    {
      "inputs": [
        {
          "internalType": "address",
          "name": "user",
          "type": "address"
        }
      ],
      "name": "getPnl",
      "outputs": [
        {
          "internalType": "int256",
          "name": "",
          "type": "int256"
        }
      ],
      "stateMutability": "view",
      "type": "function"
    },
    {
      "inputs": [
        {
          "internalType": "address",
          "name": "user",
          "type": "address"
        }
      ],
      "name": "isLiquidatable",
      "outputs": [
        {
          "internalType": "bool",
          "name": "",
          "type": "bool"
        }
      ],
      "stateMutability": "view",
      "type": "function"
    },
    {
      "inputs": [],
      "name": "k_PRECISION",
      "outputs": [
        {
          "internalType": "uint256",
          "name": "",
          "type": "uint256"
        }
      ],
      "stateMutability": "view",
      "type": "function"
    },
    {
      "inputs": [
        {
          "internalType": "address",
          "name": "user",
          "type": "address"
        }
      ],
      "name": "liquidate",
      "outputs": [],
      "stateMutability": "nonpayable",
      "type": "function"
    },
    {
      "inputs": [
        {
          "internalType": "bool",
          "name": "isLong",
          "type": "bool"
        },
        {
          "internalType": "uint256",
          "name": "margin",
          "type": "uint256"
        },
        {
          "internalType": "uint256",
          "name": "leverage",
          "type": "uint256"
        }
      ],
      "name": "openPosition",
      "outputs": [],
      "stateMutability": "nonpayable",
      "type": "function"
    },
    {
      "inputs": [],
      "name": "owner",
      "outputs": [
        {
          "internalType": "address",
          "name": "",
          "type": "address"
        }
      ],
      "stateMutability": "view",
      "type": "function"
    },
    {
      "inputs": [
        {
          "internalType": "address",
          "name": "",
          "type": "address"
        }
      ],
      "name": "positions",
      "outputs": [
        {
          "internalType": "bool",
          "name": "isLong",
          "type": "bool"
        },
        {
          "internalType": "uint256",
          "name": "margin",
          "type": "uint256"
        },
        {
          "internalType": "uint256",
          "name": "size",
          "type": "uint256"
        },
        {
          "internalType": "uint256",
          "name": "entryPrice",
          "type": "uint256"
        },
        {
          "internalType": "bool",
          "name": "isOpen",
          "type": "bool"
        }
      ],
      "stateMutability": "view",
      "type": "function"
    },
    {
      "inputs": [],
      "name": "vault",
      "outputs": [
        {
          "internalType": "contract IVault",
          "name": "",
          "type": "address"
        }
      ],
      "stateMutability": "view",
      "type": "function"
    },
    {
      "inputs": [],
      "name": "virtualBaseReserve",
      "outputs": [
        {
          "internalType": "uint256",
          "name": "",
          "type": "uint256"
        }
      ],
      "stateMutability": "view",
      "type": "function"
    },
    {
      "inputs": [],
      "name": "virtualQuoteReserve",
      "outputs": [
        {
          "internalType": "uint256",
          "name": "",
          "type": "uint256"
        }
      ],
      "stateMutability": "view",
      "type": "function"
    }
  ],
  "bytecode": "0x60a060405234801561000f575f5ffd5b50604051610f01380380610f0183398101604081905261002e91610058565b6001600160a01b039092166080525f80546001600160a01b03191633179055600155600255610097565b5f5f5f6060848603121561006a575f5ffd5b83516001600160a01b0381168114610080575f5ffd5b602085015160409095015190969495509392505050565b608051610e366100cb5f395f8181610276015281816106210152818161069b015281816108740152610a7e0152610e365ff3fe608060405234801561000f575f5ffd5b50600436106100fb575f3560e01c8063852b672f11610093578063d344d49911610063578063d344d49914610242578063e325573114610255578063f559662614610268578063fbfa77cf14610271575f5ffd5b8063852b672f146101f85780638da5cb5b14610201578063b3f741c01461022b578063c393d0e31461023a575f5ffd5b806355f57510116100ce57806355f57510146101705780635838bff7146101de57806360409632146101e75780636c569f21146101ef575f5ffd5b8063042e02cf146100ff57806313ea7c891461012757806317d8de82146101485780632f8655681461015b575b5f5ffd5b61011261010d366004610c5d565b610298565b60405190151581526020015b60405180910390f35b61013a610135366004610c5d565b610339565b60405190815260200161011e565b61013a610156366004610c5d565b61040d565b61016e610169366004610c5d565b610522565b005b6101b261017e366004610c5d565b600360208190525f91825260409091208054600182015460028301549383015460049093015460ff92831694919391921685565b60408051951515865260208601949094529284019190915260608301521515608082015260a00161011e565b61013a6101f481565b61013a610741565b61013a60015481565b61013a6103e881565b5f54610213906001600160a01b031681565b6040516001600160a01b03909116815260200161011e565b61013a670de0b6b3a764000081565b61016e61076a565b61013a610250366004610c5d565b610914565b61016e610263366004610c8a565b6109b2565b61013a60025481565b6102137f000000000000000000000000000000000000000000000000000000000000000081565b6001600160a01b0381165f908152600360208181526040808420815160a081018352815460ff908116151582526001830154948201949094526002820154928101929092529283015460608201526004909201541615156080820181905261030257505f92915050565b5f61030c84610914565b90505f6127106101f484604001516103249190610cd4565b61032e9190610d05565b909110949350505050565b6001600160a01b0381165f908152600360208181526040808420815160a081018352815460ff90811615158252600183015494820194909452600282015492810192909252928301546060820152600490920154161515608082018190526103a357505f92915050565b5f6103ac610741565b90505f8260600151826103bf9190610d18565b8351909150156103f057606083015160408401516103dd9083610d3e565b6103e79190610d6d565b95945050505050565b6060830151604084015161040383610d99565b6103dd9190610d3e565b6001600160a01b0381165f908152600360208181526040808420815160a081018352815460ff908116151582526001830154948201949094526002820154928101929092529283015460608201526004909201541615156080820181905261047757505f92915050565b5f6127106101f4836040015161048d9190610cd4565b6104979190610d05565b90505f818360200151116104ab575f6104bb565b8183602001516104bb9190610db3565b90505f83604001518460600151836104d39190610cd4565b6104dd9190610d05565b84519091501561051257808460600151116104f8575f610508565b8084606001516105089190610db3565b9695505050505050565b8084606001516105089190610dc6565b61052b81610298565b61057c5760405162461bcd60e51b815260206004820152601960248201527f706f736974696f6e206e6f74206c6971756964617461626c650000000000000060448201526064015b60405180910390fd5b5f61058682610914565b90505f6127106105986103e884610cd4565b6105a29190610d05565b90505f6105af8284610db3565b6001600160a01b0385165f9081526003602081905260408220805460ff1990811682556001820184905560028201849055918101929092556004909101805490911690559050801561067957604051632113b13960e01b81526001600160a01b038581166004830152602482018390527f00000000000000000000000000000000000000000000000000000000000000001690632113b139906044015f604051808303815f87803b158015610662575f5ffd5b505af1158015610674573d5f5f3e3d5ffd5b505050505b81156106fb57604051632113b13960e01b8152336004820152602481018390527f00000000000000000000000000000000000000000000000000000000000000006001600160a01b031690632113b139906044015f604051808303815f87803b1580156106e4575f5ffd5b505af11580156106f6573d5f5f3e3d5ffd5b505050505b60405182815233906001600160a01b038616907ff2f51441117ac1865376b3f32be7c7b7f01c5a67fbcf4e44f3ae8bacc03b5a909060200160405180910390a350505050565b5f600154670de0b6b3a764000060025461075b9190610cd4565b6107659190610d05565b905090565b335f90815260036020818152604092839020835160a081018552815460ff90811615158252600183015493820193909352600282015494810194909452918201546060840152600490910154161515608082018190526107ff5760405162461bcd60e51b815260206004820152601060248201526f37379037b832b7103837b9b4ba34b7b760811b6044820152606401610573565b5f61080933610914565b90505f61081533610339565b335f9081526003602081905260408220805460ff199081168255600182018490556002820184905591810192909255600490910180549091169055905081156108d457604051632113b13960e01b8152336004820152602481018390527f00000000000000000000000000000000000000000000000000000000000000006001600160a01b031690632113b139906044015f604051808303815f87803b1580156108bd575f5ffd5b505af11580156108cf573d5f5f3e3d5ffd5b505050505b604080518281526020810184905233917fac92dcea6a7c5a91f4c12a9323e9bca94d65ad5ef56b9450df4393d8e5996ed9910160405180910390a2505050565b6001600160a01b0381165f908152600360208181526040808420815160a081018352815460ff908116151582526001830154948201949094526002820154928101929092529283015460608201526004909201541615156080820181905261097e57505f92915050565b5f61098884610339565b90505f81836020015161099b9190610dd9565b90505f81136109aa575f6103e7565b949350505050565b335f9081526003602052604090206004015460ff1615610a0c5760405162461bcd60e51b81526020600482015260156024820152743837b9b4ba34b7b71030b63932b0b23c9037b832b760591b6044820152606401610573565b60018110158015610a1e575060148111155b610a625760405162461bcd60e51b81526020600482015260156024820152746c65766572616765206f7574206f662072616e676560581b6044820152606401610573565b60405163a5bce37960e01b8152336004820152602481018390527f00000000000000000000000000000000000000000000000000000000000000006001600160a01b03169063a5bce379906044015f604051808303815f87803b158015610ac7575f5ffd5b505af1158015610ad9573d5f5f3e3d5ffd5b505050505f8183610aea9190610cd4565b90505f610af5610741565b90508415610b3d5760025482905f90610b0f908390610dc6565b90505f81600254600154610b239190610cd4565b610b2d9190610d05565b6002929092555060015550610b96565b5f81610b51670de0b6b3a764000085610cd4565b610b5b9190610d05565b90505f81600154610b6c9190610dc6565b90505f81600254600154610b809190610cd4565b610b8a9190610d05565b60019290925550600255505b6040805160a0810182528615158082526020808301888152838501878152606080860188815260016080808901828152335f8181526003808b52908d90209b518c5490151560ff19918216178d559851948c0194909455955160028b0155925191890191909155905160049097018054971515979094169690961790925585519384529183018990529382018690529281018490527fec986bf3618c728c71c28d6cc279738fb550cf429cc747148a1ec300492fdea0910160405180910390a25050505050565b5f60208284031215610c6d575f5ffd5b81356001600160a01b0381168114610c83575f5ffd5b9392505050565b5f5f5f60608486031215610c9c575f5ffd5b83358015158114610cab575f5ffd5b95602085013595506040909401359392505050565b634e487b7160e01b5f52601160045260245ffd5b8082028115828204841417610ceb57610ceb610cc0565b92915050565b634e487b7160e01b5f52601260045260245ffd5b5f82610d1357610d13610cf1565b500490565b8181035f831280158383131683831282161715610d3757610d37610cc0565b5092915050565b8082025f8212600160ff1b84141615610d5957610d59610cc0565b8181058314821517610ceb57610ceb610cc0565b5f82610d7b57610d7b610cf1565b600160ff1b82145f1984141615610d9457610d94610cc0565b500590565b5f600160ff1b8201610dad57610dad610cc0565b505f0390565b81810381811115610ceb57610ceb610cc0565b80820180821115610ceb57610ceb610cc0565b8082018281125f831280158216821582161715610df857610df8610cc0565b50509291505056fea264697066735822122041e2716bc798b4b47d80c31442941d6cd59c55d5a434f7e827918fa22bc80dcc64736f6c634300081c0033",
  "linkReferences": {},
  "deployedLinkReferences": {},
  "immutableReferences": {
    "19": [
      {
        "length": 32,
        "start": 630
      },
      {
        "length": 32,
        "start": 1569
      },
      {
        "length": 32,
        "start": 1691
      },
      {
        "length": 32,
        "start": 2164
      },
      {
        "length": 32,
        "start": 2686
      }
    ]
  },
  "inputSourceName": "project/contracts/PerpMarket.sol",
  "buildInfoId": "solc-0_8_28-be7b1042bb8532ce929d9864b9161a6b0e453865"
}