{
  "_format": "hh3-artifact-1",
  "contractName": "PredictionMarket",
  "sourceName": "contracts/PredictionMarket.sol",
  "abi": [
    {
      "inputs": [
        {
          "internalType": "address",
          "name": "_collateralToken",
          "type": "address"
        },
        {
          "internalType": "string",
          "name": "_question",
          "type": "string"
        },
        {
          "internalType": "uint256",
          "name": "_initialLiquidity",
          "type": "uint256"
        }
      ],
      "stateMutability": "nonpayable",
      "type": "constructor"
    },
    {
      "inputs": [
        {
          "internalType": "address",
          "name": "token",
          "type": "address"
        }
      ],
      "name": "SafeERC20FailedOperation",
      "type": "error"
    },
    {
      "anonymous": false,
      "inputs": [
        {
          "indexed": false,
          "internalType": "enum PredictionMarket.Outcome",
          "name": "outcome",
          "type": "uint8"
        }
      ],
      "name": "MarketResolved",
      "type": "event"
    },
    {
      "anonymous": false,
      "inputs": [
        {
          "indexed": true,
          "internalType": "address",
          "name": "user",
          "type": "address"
        },
        {
          "indexed": false,
          "internalType": "uint256",
          "name": "amount",
          "type": "uint256"
        }
      ],
      "name": "Redeemed",
      "type": "event"
    },
    {
      "anonymous": false,
      "inputs": [
        {
          "indexed": true,
          "internalType": "address",
          "name": "user",
          "type": "address"
        },
        {
          "indexed": false,
          "internalType": "bool",
          "name": "isYes",
          "type": "bool"
        },
        {
          "indexed": false,
          "internalType": "uint256",
          "name": "amountIn",
          "type": "uint256"
        },
        {
          "indexed": false,
          "internalType": "uint256",
          "name": "sharesOut",
          "type": "uint256"
        }
      ],
      "name": "SharesPurchased",
      "type": "event"
    },
    {
      "inputs": [],
      "name": "PRECISION",
      "outputs": [
        {
          "internalType": "uint256",
          "name": "",
          "type": "uint256"
        }
      ],
      "stateMutability": "view",
      "type": "function"
    },
    {
      "inputs": [],
      "name": "admin",
      "outputs": [
        {
          "internalType": "address",
          "name": "",
          "type": "address"
        }
      ],
      "stateMutability": "view",
      "type": "function"
    },
    {
      "inputs": [
        {
          "internalType": "bool",
          "name": "isYes",
          "type": "bool"
        },
        {
          "internalType": "uint256",
          "name": "amountIn",
          "type": "uint256"
        }
      ],
      "name": "buyShares",
      "outputs": [],
      "stateMutability": "nonpayable",
      "type": "function"
    },
    {
      "inputs": [],
      "name": "collateralToken",
      "outputs": [
        {
          "internalType": "contract IERC20",
          "name": "",
          "type": "address"
        }
      ],
      "stateMutability": "view",
      "type": "function"
    },
    {
      "inputs": [],
      "name": "getNoPrice",
      "outputs": [
        {
          "internalType": "uint256",
          "name": "",
          "type": "uint256"
        }
      ],
      "stateMutability": "view",
      "type": "function"
    },
    {
      "inputs": [],
      "name": "getYesPrice",
      "outputs": [
        {
          "internalType": "uint256",
          "name": "",
          "type": "uint256"
        }
      ],
      "stateMutability": "view",
      "type": "function"
    },
    {
      "inputs": [],
      "name": "noReserve",
      "outputs": [
        {
          "internalType": "uint256",
          "name": "",
          "type": "uint256"
        }
      ],
      "stateMutability": "view",
      "type": "function"
    },
    {
      "inputs": [
        {
          "internalType": "address",
          "name": "",
          "type": "address"
        }
      ],
      "name": "noShares",
      "outputs": [
        {
          "internalType": "uint256",
          "name": "",
          "type": "uint256"
        }
      ],
      "stateMutability": "view",
      "type": "function"
    },
    {
      "inputs": [],
      "name": "outcome",
      "outputs": [
        {
          "internalType": "enum PredictionMarket.Outcome",
          "name": "",
          "type": "uint8"
        }
      ],
      "stateMutability": "view",
      "type": "function"
    },
    {
      "inputs": [],
      "name": "question",
      "outputs": [
        {
          "internalType": "string",
          "name": "",
          "type": "string"
        }
      ],
      "stateMutability": "view",
      "type": "function"
    },
    {
      "inputs": [],
      "name": "redeem",
      "outputs": [],
      "stateMutability": "nonpayable",
      "type": "function"
    },
    {
      "inputs": [
        {
          "internalType": "bool",
          "name": "isYes",
          "type": "bool"
        }
      ],
      "name": "resolveMarket",
      "outputs": [],
      "stateMutability": "nonpayable",
      "type": "function"
    },
    {
      "inputs": [],
      "name": "resolved",
      "outputs": [
        {
          "internalType": "bool",
          "name": "",
          "type": "bool"
        }
      ],
      "stateMutability": "view",
      "type": "function"
    },
    {
      "inputs": [],
      "name": "yesReserve",
      "outputs": [
        {
          "internalType": "uint256",
          "name": "",
          "type": "uint256"
        }
      ],
      "stateMutability": "view",
      "type": "function"
    },
    {
      "inputs": [
        {
          "internalType": "address",
          "name": "",
          "type": "address"
        }
      ],
      "name": "yesShares",
      "outputs": [
        {
          "internalType": "uint256",
          "name": "",
          "type": "uint256"
        }
      ],
      "stateMutability": "view",
      "type": "function"
    }
  ],
  "bytecode": "0x60c060405234801561000f575f5ffd5b50604051610df2380380610df283398101604081905261002e9161006f565b6001600160a01b0383166080523360a0525f61004a83826101cd565b506001819055600255506102879050565b634e487b7160e01b5f52604160045260245ffd5b5f5f5f60608486031215610081575f5ffd5b83516001600160a01b0381168114610097575f5ffd5b60208501519093506001600160401b038111156100b2575f5ffd5b8401601f810186136100c2575f5ffd5b80516001600160401b038111156100db576100db61005b565b604051601f8201601f19908116603f011681016001600160401b03811182821017156101095761010961005b565b604052818152828201602001881015610120575f5ffd5b8160208401602083015e5f91810160200191909152604095909501519396949550929392505050565b600181811c9082168061015d57607f821691505b60208210810361017b57634e487b7160e01b5f52602260045260245ffd5b50919050565b601f8211156101c857805f5260205f20601f840160051c810160208510156101a65750805b601f840160051c820191505b818110156101c5575f81556001016101b2565b50505b505050565b81516001600160401b038111156101e6576101e661005b565b6101fa816101f48454610149565b84610181565b6020601f82116001811461022c575f83156102155750848201515b5f19600385901b1c1916600184901b1784556101c5565b5f84815260208120601f198516915b8281101561025b578785015182556020948501946001909201910161023b565b508482101561027857868401515f19600387901b60f8161c191681555b50505050600190811b01905550565b60805160a051610b356102bd5f395f818161023b01526106f001525f81816101d8015281816103d101526106860152610b355ff3fe608060405234801561000f575f5ffd5b50600436106100f0575f3560e01c8063818fa94111610093578063b2670d7411610063578063b2670d7414610212578063be040fb01461021b578063c390bd3014610223578063f851a44014610236575f5ffd5b8063818fa9411461019d5780638779086f146101bc578063aaf5eb68146101c4578063b2016bd4146101d3575f5ffd5b80633fad9ae0116100ce5780633fad9ae01461014b57806356bc793e1461016057806368b89a2c1461017f57806372a9fa6e14610194575f5ffd5b806312b01b16146100f457806327793f871461010f5780633f6fa65514610129575b5f5ffd5b6100fc61025d565b6040519081526020015b60405180910390f35b60055461011c9060ff1681565b6040516101069190610974565b60055461013b90610100900460ff1681565b6040519015158152602001610106565b610153610293565b604051610106919061099a565b6100fc61016e3660046109cf565b60046020525f908152604090205481565b61019261018d366004610a10565b61031e565b005b6100fc60025481565b6100fc6101ab3660046109cf565b60036020525f908152604090205481565b6100fc61056b565b6100fc670de0b6b3a764000081565b6101fa7f000000000000000000000000000000000000000000000000000000000000000081565b6040516001600160a01b039091168152602001610106565b6100fc60015481565b610192610592565b610192610231366004610a38565b6106e5565b6101fa7f000000000000000000000000000000000000000000000000000000000000000081565b5f60025460015461026e9190610a65565b670de0b6b3a76400006001546102849190610a7e565b61028e9190610a95565b905090565b5f805461029f90610ab4565b80601f01602080910402602001604051908101604052809291908181526020018280546102cb90610ab4565b80156103165780601f106102ed57610100808354040283529160200191610316565b820191905f5260205f20905b8154815290600101906020018083116102f957829003601f168201915b505050505081565b600554610100900460ff16156103755760405162461bcd60e51b81526020600482015260176024820152761b585c9ad95d08185b1c9958591e481c995cdbdb1d9959604a1b60448201526064015b60405180910390fd5b5f81116103c45760405162461bcd60e51b815260206004820152601760248201527f616d6f756e74206d75737420626520706f736974697665000000000000000000604482015260640161036c565b6103f96001600160a01b037f00000000000000000000000000000000000000000000000000000000000000001633308461081b565b81156104bb575f8160025461040e9190610a65565b90505f816002546001546104229190610a7e565b61042c9190610a95565b90505f8160015461043d9190610aec565b60018390556002849055335f9081526003602052604081208054929350839290919061046a908490610a65565b909155505060408051600181526020810186905290810182905233907f9bd054fb950acb82b978a4ba93668286e2c3fa8c43589f21061c8520068ba80c906060015b60405180910390a25050505050565b5f816001546104ca9190610a65565b90505f816002546001546104de9190610a7e565b6104e89190610a95565b90505f816002546104f99190610aec565b60018490556002839055335f90815260046020526040812080549293508392909190610526908490610a65565b9091555050604080515f81526020810186905290810182905233907f9bd054fb950acb82b978a4ba93668286e2c3fa8c43589f21061c8520068ba80c906060016104ac565b5f60025460015461057c9190610a65565b670de0b6b3a76400006002546102849190610a7e565b600554610100900460ff166105e95760405162461bcd60e51b815260206004820152601760248201527f6d61726b6574206e6f74207265736f6c76656420796574000000000000000000604482015260640161036c565b5f600160055460ff16600281111561060357610603610960565b036106215750335f9081526003602052604081208054919055610636565b50335f90815260046020526040812080549190555b5f81116106795760405162461bcd60e51b81526020600482015260116024820152706e6f7468696e6720746f2072656465656d60781b604482015260640161036c565b6106ad6001600160a01b037f0000000000000000000000000000000000000000000000000000000000000000163383610857565b60405181815233907f4896181ff8f4543cc00db9fe9b6fb7e6f032b7eb772c72ab1ec1b4d2e03b93699060200160405180910390a250565b336001600160a01b037f000000000000000000000000000000000000000000000000000000000000000016146107495760405162461bcd60e51b81526020600482015260096024820152683737ba1030b236b4b760b91b604482015260640161036c565b600554610100900460ff161561079b5760405162461bcd60e51b81526020600482015260176024820152761b585c9ad95d08185b1c9958591e481c995cdbdb1d9959604a1b604482015260640161036c565b806107a75760026107aa565b60015b6005805460ff191660018360028111156107c6576107c6610960565b02179055506005805461ff00198116610100179091556040517f94e5f71d5001613eb5e4ad876acb1da127582270c692c34fbcf810be21728b1d916108109160ff90911690610974565b60405180910390a150565b610829848484846001610891565b61085157604051635274afe760e01b81526001600160a01b038516600482015260240161036c565b50505050565b61086483838360016108fe565b61088c57604051635274afe760e01b81526001600160a01b038416600482015260240161036c565b505050565b6040516323b872dd60e01b5f8181526001600160a01b038781166004528616602452604485905291602083606481808c5af1925060015f511483166108ed5783831516156108e1573d5f823e3d81fd5b5f883b113d1516831692505b604052505f60605295945050505050565b60405163a9059cbb60e01b5f8181526001600160a01b038616600452602485905291602083604481808b5af1925060015f51148316610954578383151615610948573d5f823e3d81fd5b5f873b113d1516831692505b60405250949350505050565b634e487b7160e01b5f52602160045260245ffd5b602081016003831061099457634e487b7160e01b5f52602160045260245ffd5b91905290565b602081525f82518060208401528060208501604085015e5f604082850101526040601f19601f83011684010191505092915050565b5f602082840312156109df575f5ffd5b81356001600160a01b03811681146109f5575f5ffd5b9392505050565b80358015158114610a0b575f5ffd5b919050565b5f5f60408385031215610a21575f5ffd5b610a2a836109fc565b946020939093013593505050565b5f60208284031215610a48575f5ffd5b6109f5826109fc565b634e487b7160e01b5f52601160045260245ffd5b80820180821115610a7857610a78610a51565b92915050565b8082028115828204841417610a7857610a78610a51565b5f82610aaf57634e487b7160e01b5f52601260045260245ffd5b500490565b600181811c90821680610ac857607f821691505b602082108103610ae657634e487b7160e01b5f52602260045260245ffd5b50919050565b81810381811115610a7857610a78610a5156fea264697066735822122065a1b8b88116de67ba239c32514511fecc41230689cd3d5f14c5c53867247aa664736f6c634300081c0033",
  "linkReferences": {},
  "deployedLinkReferences": {},
  "immutableReferences": {
    "646": [
      {
        "length": 32,
        "start": 472
      },
      {
        "length": 32,
        "start": 977
      },
      {
        "length": 32,
        "start": 1670
      }
    ],
    "648": [
      {
        "length": 32,
        "start": 571
      },
      {
        "length": 32,
        "start": 1776
      }
    ]
  },
  "inputSourceName": "project/contracts/PredictionMarket.sol",
  "buildInfoId": "solc-0_8_28-5ad22132415179115bcd52bbc3e479361a9e71d1"
}