{
  "_format": "hh3-artifact-1",
  "contractName": "Vault",
  "sourceName": "contracts/Vault.sol",
  "abi": [
    {
      "inputs": [
        {
          "internalType": "address",
          "name": "_collateralToken",
          "type": "address"
        }
      ],
      "stateMutability": "nonpayable",
      "type": "constructor"
    },
    {
      "inputs": [
        {
          "internalType": "address",
          "name": "token",
          "type": "address"
        }
      ],
      "name": "SafeERC20FailedOperation",
      "type": "error"
    },
    {
      "anonymous": false,
      "inputs": [
        {
          "indexed": true,
          "internalType": "address",
          "name": "user",
          "type": "address"
        },
        {
          "indexed": false,
          "internalType": "uint256",
          "name": "amount",
          "type": "uint256"
        }
      ],
      "name": "Deposited",
      "type": "event"
    },
    {
      "anonymous": false,
      "inputs": [
        {
          "indexed": true,
          "internalType": "address",
          "name": "user",
          "type": "address"
        },
        {
          "indexed": false,
          "internalType": "uint256",
          "name": "amount",
          "type": "uint256"
        }
      ],
      "name": "Withdrawn",
      "type": "event"
    },
    {
      "inputs": [
        {
          "internalType": "address",
          "name": "",
          "type": "address"
        }
      ],
      "name": "authorizedMarkets",
      "outputs": [
        {
          "internalType": "bool",
          "name": "",
          "type": "bool"
        }
      ],
      "stateMutability": "view",
      "type": "function"
    },
    {
      "inputs": [
        {
          "internalType": "address",
          "name": "",
          "type": "address"
        }
      ],
      "name": "balanceOf",
      "outputs": [
        {
          "internalType": "uint256",
          "name": "",
          "type": "uint256"
        }
      ],
      "stateMutability": "view",
      "type": "function"
    },
    {
      "inputs": [],
      "name": "collateralToken",
      "outputs": [
        {
          "internalType": "contract IERC20",
          "name": "",
          "type": "address"
        }
      ],
      "stateMutability": "view",
      "type": "function"
    },
    {
      "inputs": [
        {
          "internalType": "address",
          "name": "user",
          "type": "address"
        },
        {
          "internalType": "uint256",
          "name": "amount",
          "type": "uint256"
        }
      ],
      "name": "creditUser",
      "outputs": [],
      "stateMutability": "nonpayable",
      "type": "function"
    },
    {
      "inputs": [
        {
          "internalType": "uint256",
          "name": "amount",
          "type": "uint256"
        }
      ],
      "name": "deposit",
      "outputs": [],
      "stateMutability": "nonpayable",
      "type": "function"
    },
    {
      "inputs": [
        {
          "internalType": "address",
          "name": "user",
          "type": "address"
        },
        {
          "internalType": "uint256",
          "name": "amount",
          "type": "uint256"
        }
      ],
      "name": "lockMargin",
      "outputs": [],
      "stateMutability": "nonpayable",
      "type": "function"
    },
    {
      "inputs": [],
      "name": "owner",
      "outputs": [
        {
          "internalType": "address",
          "name": "",
          "type": "address"
        }
      ],
      "stateMutability": "view",
      "type": "function"
    },
    {
      "inputs": [
        {
          "internalType": "address",
          "name": "market",
          "type": "address"
        },
        {
          "internalType": "bool",
          "name": "allowed",
          "type": "bool"
        }
      ],
      "name": "setMarketAuthorization",
      "outputs": [],
      "stateMutability": "nonpayable",
      "type": "function"
    },
    {
      "inputs": [
        {
          "internalType": "uint256",
          "name": "amount",
          "type": "uint256"
        }
      ],
      "name": "withdraw",
      "outputs": [],
      "stateMutability": "nonpayable",
      "type": "function"
    }
  ],
  "bytecode": "0x60a060405234801561000f575f5ffd5b5060405161080338038061080383398101604081905261002e91610051565b6001600160a01b0316608052600280546001600160a01b0319163317905561007e565b5f60208284031215610061575f5ffd5b81516001600160a01b0381168114610077575f5ffd5b9392505050565b60805161075f6100a45f395f8181610163015281816102bc0152610404015261075f5ff3fe608060405234801561000f575f5ffd5b5060043610610090575f3560e01c80638da5cb5b116100635780638da5cb5b14610120578063a5bce3791461014b578063b2016bd41461015e578063b6b55f2514610185578063ca7f6e4314610198575f5ffd5b80632113b139146100945780632e1a7d4d146100a95780634299b8a2146100bc57806370a08231146100f3575b5f5ffd5b6100a76100a2366004610651565b6101ab565b005b6100a76100b7366004610679565b610236565b6100de6100ca366004610690565b60016020525f908152604090205460ff1681565b60405190151581526020015b60405180910390f35b610112610101366004610690565b5f6020819052908152604090205481565b6040519081526020016100ea565b600254610133906001600160a01b031681565b6040516001600160a01b0390911681526020016100ea565b6100a7610159366004610651565b61031c565b6101337f000000000000000000000000000000000000000000000000000000000000000081565b6100a7610193366004610679565b6103f7565b6100a76101a63660046106b0565b610481565b335f9081526001602052604090205460ff166102065760405162461bcd60e51b81526020600482015260156024820152741b9bdd08185d5d1a1bdc9a5e9959081b585c9ad95d605a1b60448201526064015b60405180910390fd5b6001600160a01b0382165f908152602081905260408120805483929061022d9084906106fd565b90915550505050565b335f9081526020819052604090205481111561028b5760405162461bcd60e51b8152602060048201526014602482015273696e73756666696369656e742062616c616e636560601b60448201526064016101fd565b335f90815260208190526040812080548392906102a9908490610716565b909155506102e390506001600160a01b037f00000000000000000000000000000000000000000000000000000000000000001633836104f1565b60405181815233907f7084f5476618d8e60b11ef0d7d3f06914655adb8793e28ff7f018d4c76d505d5906020015b60405180910390a250565b335f9081526001602052604090205460ff166103725760405162461bcd60e51b81526020600482015260156024820152741b9bdd08185d5d1a1bdc9a5e9959081b585c9ad95d605a1b60448201526064016101fd565b6001600160a01b0382165f908152602081905260409020548111156103d05760405162461bcd60e51b8152602060048201526014602482015273696e73756666696369656e742062616c616e636560601b60448201526064016101fd565b6001600160a01b0382165f908152602081905260408120805483929061022d908490610716565b61042c6001600160a01b037f00000000000000000000000000000000000000000000000000000000000000001633308461052b565b335f908152602081905260408120805483929061044a9084906106fd565b909155505060405181815233907f2da466a7b24304f47e87fa2e1e5a81b9831ce54fec19055ce277ca2f39ba42c490602001610311565b6002546001600160a01b031633146104c75760405162461bcd60e51b81526020600482015260096024820152683737ba1037bbb732b960b91b60448201526064016101fd565b6001600160a01b03919091165f908152600160205260409020805460ff1916911515919091179055565b6104fe8383836001610567565b61052657604051635274afe760e01b81526001600160a01b03841660048201526024016101fd565b505050565b6105398484848460016105c9565b61056157604051635274afe760e01b81526001600160a01b03851660048201526024016101fd565b50505050565b60405163a9059cbb60e01b5f8181526001600160a01b038616600452602485905291602083604481808b5af1925060015f511483166105bd5783831516156105b1573d5f823e3d81fd5b5f873b113d1516831692505b60405250949350505050565b6040516323b872dd60e01b5f8181526001600160a01b038781166004528616602452604485905291602083606481808c5af1925060015f51148316610625578383151615610619573d5f823e3d81fd5b5f883b113d1516831692505b604052505f60605295945050505050565b80356001600160a01b038116811461064c575f5ffd5b919050565b5f5f60408385031215610662575f5ffd5b61066b83610636565b946020939093013593505050565b5f60208284031215610689575f5ffd5b5035919050565b5f602082840312156106a0575f5ffd5b6106a982610636565b9392505050565b5f5f604083850312156106c1575f5ffd5b6106ca83610636565b9150602083013580151581146106de575f5ffd5b809150509250929050565b634e487b7160e01b5f52601160045260245ffd5b80820180821115610710576107106106e9565b92915050565b81810381811115610710576107106106e956fea2646970667358221220a4f21f47d55c1e47544e2f54cbde838987318ed192c97abe108e69e18d71408f64736f6c634300081c0033",
  "linkReferences": {},
  "deployedLinkReferences": {},
  "immutableReferences": {
    "645": [
      {
        "length": 32,
        "start": 355
      },
      {
        "length": 32,
        "start": 700
      },
      {
        "length": 32,
        "start": 1028
      }
    ]
  },
  "inputSourceName": "project/contracts/Vault.sol",
  "buildInfoId": "solc-0_8_28-fcb22a4fecfe714fccd6dc4db07eb904c2c1f423"
}